{
  "_format": "hh-sol-artifact-1",
  "contractName": "NeftexFund",
  "sourceName": "contracts/NeftexFund.sol",
  "abi": [
    {
      "inputs": [
        {
          "internalType": "uint256",
          "name": "_campaignFee",
          "type": "uint256"
        }
      ],
      "stateMutability": "nonpayable",
      "type": "constructor"
    },
    {
      "anonymous": false,
      "inputs": [
        {
          "indexed": false,
          "internalType": "uint256",
          "name": "id",
          "type": "uint256"
        },
        {
          "indexed": false,
          "internalType": "string",
          "name": "actionType",
          "type": "string"
        },
        {
          "indexed": true,
          "internalType": "address",
          "name": "performer",
          "type": "address"
        },
        {
          "indexed": false,
          "internalType": "uint256",
          "name": "timestamp",
          "type": "uint256"
        }
      ],
      "name": "Action",
      "type": "event"
    },
    {
      "inputs": [
        {
          "internalType": "uint256",
          "name": "_fee",
          "type": "uint256"
        }
      ],
      "name": "ReviewFee",
      "outputs": [],
      "stateMutability": "nonpayable",
      "type": "function"
    },
    {
      "inputs": [
        {
          "internalType": "uint256",
          "name": "",
          "type": "uint256"
        }
      ],
      "name": "availableCampaign",
      "outputs": [
        {
          "internalType": "bool",
          "name": "",
          "type": "bool"
        }
      ],
      "stateMutability": "view",
      "type": "function"
    },
    {
      "inputs": [],
      "name": "balance",
      "outputs": [
        {
          "internalType": "uint256",
          "name": "",
          "type": "uint256"
        }
      ],
      "stateMutability": "view",
      "type": "function"
    },
    {
      "inputs": [],
      "name": "campaignFee",
      "outputs": [
        {
          "internalType": "uint256",
          "name": "",
          "type": "uint256"
        }
      ],
      "stateMutability": "view",
      "type": "function"
    },
    {
      "inputs": [],
      "name": "counts",
      "outputs": [
        {
          "internalType": "uint256",
          "name": "totalNumOfCampaigns",
          "type": "uint256"
        },
        {
          "internalType": "uint256",
          "name": "totalNumOfSupports",
          "type": "uint256"
        },
        {
          "internalType": "uint256",
          "name": "totalNumOfFundings",
          "type": "uint256"
        }
      ],
      "stateMutability": "view",
      "type": "function"
    },
    {
      "inputs": [
        {
          "internalType": "uint256",
          "name": "id",
          "type": "uint256"
        }
      ],
      "name": "demandRefund",
      "outputs": [
        {
          "internalType": "bool",
          "name": "",
          "type": "bool"
        }
      ],
      "stateMutability": "nonpayable",
      "type": "function"
    },
    {
      "inputs": [
        {
          "internalType": "uint256",
          "name": "id",
          "type": "uint256"
        }
      ],
      "name": "getcampaign",
      "outputs": [
        {
          "components": [
            {
              "internalType": "uint256",
              "name": "id",
              "type": "uint256"
            },
            {
              "internalType": "address",
              "name": "owner",
              "type": "address"
            },
            {
              "internalType": "string",
              "name": "title",
              "type": "string"
            },
            {
              "internalType": "string",
              "name": "description",
              "type": "string"
            },
            {
              "internalType": "string",
              "name": "imageURL",
              "type": "string"
            },
            {
              "internalType": "uint256",
              "name": "amount",
              "type": "uint256"
            },
            {
              "internalType": "uint256",
              "name": "amountAccrued",
              "type": "uint256"
            },
            {
              "internalType": "uint256",
              "name": "timestamp",
              "type": "uint256"
            },
            {
              "internalType": "uint256",
              "name": "deadline",
              "type": "uint256"
            },
            {
              "internalType": "uint256",
              "name": "_supporters",
              "type": "uint256"
            },
            {
              "internalType": "enum NeftexFund.checkState",
              "name": "check",
              "type": "uint8"
            }
          ],
          "internalType": "struct NeftexFund.campaignStruct",
          "name": "",
          "type": "tuple"
        }
      ],
      "stateMutability": "view",
      "type": "function"
    },
    {
      "inputs": [],
      "name": "getcampaigns",
      "outputs": [
        {
          "components": [
            {
              "internalType": "uint256",
              "name": "id",
              "type": "uint256"
            },
            {
              "internalType": "address",
              "name": "owner",
              "type": "address"
            },
            {
              "internalType": "string",
              "name": "title",
              "type": "string"
            },
            {
              "internalType": "string",
              "name": "description",
              "type": "string"
            },
            {
              "internalType": "string",
              "name": "imageURL",
              "type": "string"
            },
            {
              "internalType": "uint256",
              "name": "amount",
              "type": "uint256"
            },
            {
              "internalType": "uint256",
              "name": "amountAccrued",
              "type": "uint256"
            },
            {
              "internalType": "uint256",
              "name": "timestamp",
              "type": "uint256"
            },
            {
              "internalType": "uint256",
              "name": "deadline",
              "type": "uint256"
            },
            {
              "internalType": "uint256",
              "name": "_supporters",
              "type": "uint256"
            },
            {
              "internalType": "enum NeftexFund.checkState",
              "name": "check",
              "type": "uint8"
            }
          ],
          "internalType": "struct NeftexFund.campaignStruct[]",
          "name": "",
          "type": "tuple[]"
        }
      ],
      "stateMutability": "view",
      "type": "function"
    },
    {
      "inputs": [
        {
          "internalType": "uint256",
          "name": "id",
          "type": "uint256"
        }
      ],
      "name": "getsupporters",
      "outputs": [
        {
          "components": [
            {
              "internalType": "address",
              "name": "owner",
              "type": "address"
            },
            {
              "internalType": "uint256",
              "name": "participation",
              "type": "uint256"
            },
            {
              "internalType": "uint256",
              "name": "timestamp",
              "type": "uint256"
            },
            {
              "internalType": "bool",
              "name": "refunded",
              "type": "bool"
            }
          ],
          "internalType": "struct NeftexFund.supporterStruct[]",
          "name": "",
          "type": "tuple[]"
        }
      ],
      "stateMutability": "view",
      "type": "function"
    },
    {
      "inputs": [],
      "name": "numOfCampaign",
      "outputs": [
        {
          "internalType": "uint256",
          "name": "",
          "type": "uint256"
        }
      ],
      "stateMutability": "view",
      "type": "function"
    },
    {
      "inputs": [],
      "name": "owner",
      "outputs": [
        {
          "internalType": "address",
          "name": "",
          "type": "address"
        }
      ],
      "stateMutability": "view",
      "type": "function"
    },
    {
      "inputs": [
        {
          "internalType": "uint256",
          "name": "id",
          "type": "uint256"
        },
        {
          "internalType": "string",
          "name": "title",
          "type": "string"
        },
        {
          "internalType": "string",
          "name": "description",
          "type": "string"
        },
        {
          "internalType": "string",
          "name": "imageURL",
          "type": "string"
        },
        {
          "internalType": "uint256",
          "name": "deadline",
          "type": "uint256"
        }
      ],
      "name": "reviewcampaign",
      "outputs": [
        {
          "internalType": "bool",
          "name": "",
          "type": "bool"
        }
      ],
      "stateMutability": "nonpayable",
      "type": "function"
    },
    {
      "inputs": [
        {
          "internalType": "string",
          "name": "title",
          "type": "string"
        },
        {
          "internalType": "string",
          "name": "description",
          "type": "string"
        },
        {
          "internalType": "string",
          "name": "imageURL",
          "type": "string"
        },
        {
          "internalType": "uint256",
          "name": "amount",
          "type": "uint256"
        },
        {
          "internalType": "uint256",
          "name": "deadline",
          "type": "uint256"
        }
      ],
      "name": "startcampaign",
      "outputs": [
        {
          "internalType": "bool",
          "name": "",
          "type": "bool"
        }
      ],
      "stateMutability": "nonpayable",
      "type": "function"
    },
    {
      "inputs": [
        {
          "internalType": "uint256",
          "name": "id",
          "type": "uint256"
        }
      ],
      "name": "supportcampaign",
      "outputs": [
        {
          "internalType": "bool",
          "name": "",
          "type": "bool"
        }
      ],
      "stateMutability": "payable",
      "type": "function"
    },
    {
      "inputs": [
        {
          "internalType": "uint256",
          "name": "id",
          "type": "uint256"
        }
      ],
      "name": "terminatecampaign",
      "outputs": [
        {
          "internalType": "bool",
          "name": "",
          "type": "bool"
        }
      ],
      "stateMutability": "nonpayable",
      "type": "function"
    },
    {
      "inputs": [
        {
          "internalType": "uint256",
          "name": "id",
          "type": "uint256"
        }
      ],
      "name": "withdrawcampaign",
      "outputs": [
        {
          "internalType": "bool",
          "name": "",
          "type": "bool"
        }
      ],
      "stateMutability": "nonpayable",
      "type": "function"
    }
  ],
  "bytecode": "0x60806040523480156200001157600080fd5b50604051620038973803806200389783398181016040528101906200003791906200009c565b336000806101000a81548173ffffffffffffffffffffffffffffffffffffffff021916908373ffffffffffffffffffffffffffffffffffffffff1602179055508060018190555050620000f7565b6000815190506200009681620000dd565b92915050565b600060208284031215620000b557620000b4620000d8565b5b6000620000c58482850162000085565b91505092915050565b6000819050919050565b600080fd5b620000e881620000ce565b8114620000f457600080fd5b50565b61379080620001076000396000f3fe6080604052600436106100f35760003560e01c80638a5be9b71161008a578063ded196c411610059578063ded196c414610349578063f21b1a9c14610386578063f64b4f8d146103c3578063fc5ee9ae14610400576100f3565b80638a5be9b71461029f5780638da5cb5b146102ca578063a912e362146102f5578063b69ef8a81461031e576100f3565b806358968de2116100c657806358968de2146101bb5780637ecc3247146101f8578063817cc1ea1461023557806385d052e714610262576100f3565b80632db59396146100f85780633c3279ad146101235780633fd016ab1461016057806348813d8c1461018b575b600080fd5b34801561010457600080fd5b5061010d61043d565b60405161011a9190612d3f565b60405180910390f35b34801561012f57600080fd5b5061014a600480360381019061014591906123ef565b610443565b6040516101579190612ba2565b60405180910390f35b34801561016c57600080fd5b50610175610640565b6040516101829190612b5e565b60405180910390f35b6101a560048036038101906101a091906123ef565b610923565b6040516101b29190612ba2565b60405180910390f35b3480156101c757600080fd5b506101e260048036038101906101dd91906123ef565b610dc8565b6040516101ef9190612d1d565b60405180910390f35b34801561020457600080fd5b5061021f600480360381019061021a91906123ef565b6110e8565b60405161022c9190612ba2565b60405180910390f35b34801561024157600080fd5b5061024a61129e565b60405161025993929190612e86565b60405180910390f35b34801561026e57600080fd5b50610289600480360381019061028491906123ef565b6112b6565b6040516102969190612ba2565b60405180910390f35b3480156102ab57600080fd5b506102b4611414565b6040516102c19190612d3f565b60405180910390f35b3480156102d657600080fd5b506102df61141a565b6040516102ec9190612b43565b60405180910390f35b34801561030157600080fd5b5061031c600480360381019061031791906123ef565b61143e565b005b34801561032a57600080fd5b506103336114d6565b6040516103409190612d3f565b60405180910390f35b34801561035557600080fd5b50610370600480360381019061036b91906123ef565b6114dc565b60405161037d9190612ba2565b60405180910390f35b34801561039257600080fd5b506103ad60048036038101906103a891906123ef565b6114fc565b6040516103ba9190612b80565b60405180910390f35b3480156103cf57600080fd5b506103ea60048036038101906103e5919061241c565b6115f3565b6040516103f79190612ba2565b60405180910390f35b34801561040c57600080fd5b5061042760048036038101906104229190612320565b6118a9565b6040516104349190612ba2565b60405180910390f35b60025481565b60008060048111156104585761045761328b565b5b6007838154811061046c5761046b6132e9565b5b90600052602060002090600b0201600a0160009054906101000a900460ff16600481111561049d5761049c61328b565b5b146104dd576040517f08c379a00000000000000000000000000000000000000000000000000000000081526004016104d490612c5d565b60405180910390fd5b600782815481106104f1576104f06132e9565b5b90600052602060002090600b020160010160009054906101000a900473ffffffffffffffffffffffffffffffffffffffff1673ffffffffffffffffffffffffffffffffffffffff163373ffffffffffffffffffffffffffffffffffffffff1614610590576040517f08c379a000000000000000000000000000000000000000000000000000000000815260040161058790612c1d565b60405180910390fd5b6003600783815481106105a6576105a56132e9565b5b90600052602060002090600b0201600a0160006101000a81548160ff021916908360048111156105d9576105d861328b565b5b02179055506105e782611db1565b3373ffffffffffffffffffffffffffffffffffffffff167faee8e5d3bbb2f71a951b5632cee20f7ac487b9f8ab4f66a236f7694b13af7c6a834260405161062f929190612d96565b60405180910390a260019050919050565b60606007805480602002602001604051908101604052809291908181526020016000905b8282101561091a57838290600052602060002090600b020160405180610160016040529081600082015481526020016001820160009054906101000a900473ffffffffffffffffffffffffffffffffffffffff1673ffffffffffffffffffffffffffffffffffffffff1673ffffffffffffffffffffffffffffffffffffffff1681526020016002820180546106f890613181565b80601f016020809104026020016040519081016040528092919081815260200182805461072490613181565b80156107715780601f1061074657610100808354040283529160200191610771565b820191906000526020600020905b81548152906001019060200180831161075457829003601f168201915b5050505050815260200160038201805461078a90613181565b80601f01602080910402602001604051908101604052809291908181526020018280546107b690613181565b80156108035780601f106107d857610100808354040283529160200191610803565b820191906000526020600020905b8154815290600101906020018083116107e657829003601f168201915b5050505050815260200160048201805461081c90613181565b80601f016020809104026020016040519081016040528092919081815260200182805461084890613181565b80156108955780601f1061086a57610100808354040283529160200191610895565b820191906000526020600020905b81548152906001019060200180831161087857829003601f168201915b505050505081526020016005820154815260200160068201548152602001600782015481526020016008820154815260200160098201548152602001600a820160009054906101000a900460ff1660048111156108f5576108f461328b565b5b60048111156109075761090661328b565b5b8152505081526020019060010190610664565b50505050905090565b6000803411610967576040517f08c379a000000000000000000000000000000000000000000000000000000000815260040161095e90612cfd565b60405180910390fd5b600a600083815260200190815260200160002060009054906101000a900460ff166109c7576040517f08c379a00000000000000000000000000000000000000000000000000000000081526004016109be90612bfd565b60405180910390fd5b600060048111156109db576109da61328b565b5b600783815481106109ef576109ee6132e9565b5b90600052602060002090600b0201600a0160009054906101000a900460ff166004811115610a2057610a1f61328b565b5b14610a60576040517f08c379a0000000000000000000000000000000000000000000000000000000008152600401610a5790612c5d565b60405180910390fd5b600160046001016000828254610a769190612fbd565b925050819055503460046002016000828254610a929190612fbd565b925050819055503460078381548110610aae57610aad6132e9565b5b90600052602060002090600b02016006016000828254610ace9190612fbd565b92505081905550600160078381548110610aeb57610aea6132e9565b5b90600052602060002090600b0201600901819055506009600083815260200190815260200160002060405180608001604052803373ffffffffffffffffffffffffffffffffffffffff16815260200134815260200142815260200160001515815250908060018154018082558091505060019003906000526020600020906004020160009091909190915060008201518160000160006101000a81548173ffffffffffffffffffffffffffffffffffffffff021916908373ffffffffffffffffffffffffffffffffffffffff160217905550602082015181600101556040820151816002015560608201518160030160006101000a81548160ff02191690831515021790555050503373ffffffffffffffffffffffffffffffffffffffff167faee8e5d3bbb2f71a951b5632cee20f7ac487b9f8ab4f66a236f7694b13af7c6a8342604051610c3b929190612d5a565b60405180910390a260078281548110610c5757610c566132e9565b5b90600052602060002090600b02016005015460078381548110610c7d57610c7c6132e9565b5b90600052602060002090600b02016006015410610d3257600160078381548110610caa57610ca96132e9565b5b90600052602060002090600b0201600a0160006101000a81548160ff02191690836004811115610cdd57610cdc61328b565b5b021790555060078281548110610cf657610cf56132e9565b5b90600052602060002090600b02016006015460036000828254610d199190612fbd565b92505081905550610d2982611f4e565b60019050610dc3565b60078281548110610d4657610d456132e9565b5b90600052602060002090600b0201600801544210610dbe57600260078381548110610d7457610d736132e9565b5b90600052602060002090600b0201600a0160006101000a81548160ff02191690836004811115610da757610da661328b565b5b0217905550610db582611db1565b60019050610dc3565b600190505b919050565b610dd0612176565b600a600083815260200190815260200160002060009054906101000a900460ff16610e30576040517f08c379a0000000000000000000000000000000000000000000000000000000008152600401610e2790612bfd565b60405180910390fd5b60078281548110610e4457610e436132e9565b5b90600052602060002090600b020160405180610160016040529081600082015481526020016001820160009054906101000a900473ffffffffffffffffffffffffffffffffffffffff1673ffffffffffffffffffffffffffffffffffffffff1673ffffffffffffffffffffffffffffffffffffffff168152602001600282018054610ece90613181565b80601f0160208091040260200160405190810160405280929190818152602001828054610efa90613181565b8015610f475780601f10610f1c57610100808354040283529160200191610f47565b820191906000526020600020905b815481529060010190602001808311610f2a57829003601f168201915b50505050508152602001600382018054610f6090613181565b80601f0160208091040260200160405190810160405280929190818152602001828054610f8c90613181565b8015610fd95780601f10610fae57610100808354040283529160200191610fd9565b820191906000526020600020905b815481529060010190602001808311610fbc57829003601f168201915b50505050508152602001600482018054610ff290613181565b80601f016020809104026020016040519081016040528092919081815260200182805461101e90613181565b801561106b5780601f106110405761010080835404028352916020019161106b565b820191906000526020600020905b81548152906001019060200180831161104e57829003601f168201915b505050505081526020016005820154815260200160068201548152602001600782015481526020016008820154815260200160098201548152602001600a820160009054906101000a900460ff1660048111156110cb576110ca61328b565b5b60048111156110dd576110dc61328b565b5b815250509050919050565b6000600160048111156110fe576110fd61328b565b5b60078381548110611112576111116132e9565b5b90600052602060002090600b0201600a0160009054906101000a900460ff1660048111156111435761114261328b565b5b14611183576040517f08c379a000000000000000000000000000000000000000000000000000000000815260040161117a90612bbd565b60405180910390fd5b60078281548110611197576111966132e9565b5b90600052602060002090600b020160010160009054906101000a900473ffffffffffffffffffffffffffffffffffffffff1673ffffffffffffffffffffffffffffffffffffffff163373ffffffffffffffffffffffffffffffffffffffff16148061124d575060008054906101000a900473ffffffffffffffffffffffffffffffffffffffff1673ffffffffffffffffffffffffffffffffffffffff163373ffffffffffffffffffffffffffffffffffffffff16145b61128c576040517f08c379a000000000000000000000000000000000000000000000000000000000815260040161128390612c1d565b60405180910390fd5b61129582611f4e565b60019050919050565b60048060000154908060010154908060020154905083565b6000600260048111156112cc576112cb61328b565b5b600783815481106112e0576112df6132e9565b5b90600052602060002090600b0201600a0160009054906101000a900460ff1660048111156113115761131061328b565b5b14158061137557506003600481111561132d5761132c61328b565b5b60078381548110611341576113406132e9565b5b90600052602060002090600b0201600a0160009054906101000a900460ff1660048111156113725761137161328b565b5b14155b6113b4576040517f08c379a00000000000000000000000000000000000000000000000000000000081526004016113ab90612cbd565b60405180910390fd5b6002600783815481106113ca576113c96132e9565b5b90600052602060002090600b0201600a0160006101000a81548160ff021916908360048111156113fd576113fc61328b565b5b021790555061140b82611db1565b60019050919050565b60015481565b60008054906101000a900473ffffffffffffffffffffffffffffffffffffffff1681565b60008054906101000a900473ffffffffffffffffffffffffffffffffffffffff1673ffffffffffffffffffffffffffffffffffffffff163373ffffffffffffffffffffffffffffffffffffffff16146114cc576040517f08c379a00000000000000000000000000000000000000000000000000000000081526004016114c390612bdd565b60405180910390fd5b8060018190555050565b60035481565b600a6020528060005260406000206000915054906101000a900460ff1681565b606060096000838152602001908152602001600020805480602002602001604051908101604052809291908181526020016000905b828210156115e857838290600052602060002090600402016040518060800160405290816000820160009054906101000a900473ffffffffffffffffffffffffffffffffffffffff1673ffffffffffffffffffffffffffffffffffffffff1673ffffffffffffffffffffffffffffffffffffffff16815260200160018201548152602001600282015481526020016003820160009054906101000a900460ff16151515158152505081526020019060010190611531565b505050509050919050565b600060078681548110611609576116086132e9565b5b90600052602060002090600b020160010160009054906101000a900473ffffffffffffffffffffffffffffffffffffffff1673ffffffffffffffffffffffffffffffffffffffff163373ffffffffffffffffffffffffffffffffffffffff16146116a8576040517f08c379a000000000000000000000000000000000000000000000000000000000815260040161169f90612c1d565b60405180910390fd5b60008551116116ec576040517f08c379a00000000000000000000000000000000000000000000000000000000081526004016116e390612c3d565b60405180910390fd5b6000845111611730576040517f08c379a000000000000000000000000000000000000000000000000000000000815260040161172790612c7d565b60405180910390fd5b6000835111611774576040517f08c379a000000000000000000000000000000000000000000000000000000000815260040161176b90612c9d565b60405180910390fd5b8460078781548110611789576117886132e9565b5b90600052602060002090600b020160020190805190602001906117ad9291906121f8565b5083600787815481106117c3576117c26132e9565b5b90600052602060002090600b020160030190805190602001906117e79291906121f8565b5082600787815481106117fd576117fc6132e9565b5b90600052602060002090600b020160040190805190602001906118219291906121f8565b508160078781548110611837576118366132e9565b5b90600052602060002090600b0201600801819055503373ffffffffffffffffffffffffffffffffffffffff167faee8e5d3bbb2f71a951b5632cee20f7ac487b9f8ab4f66a236f7694b13af7c6a8742604051611894929190612e4a565b60405180910390a26001905095945050505050565b6000808651116118ee576040517f08c379a00000000000000000000000000000000000000000000000000000000081526004016118e590612c3d565b60405180910390fd5b6000855111611932576040517f08c379a000000000000000000000000000000000000000000000000000000000815260040161192990612c7d565b60405180910390fd5b6000845111611976576040517f08c379a000000000000000000000000000000000000000000000000000000000815260040161196d90612c9d565b60405180910390fd5b600083116119b9576040517f08c379a00000000000000000000000000000000000000000000000000000000081526004016119b090612cdd565b60405180910390fd5b6119c1612176565b60025481600001818152505033816020019073ffffffffffffffffffffffffffffffffffffffff16908173ffffffffffffffffffffffffffffffffffffffff1681525050868160400181905250858160600181905250848160800181905250838160a0018181525050428160e0018181525050828161010001818152505060078190806001815401808255809150506001900390600052602060002090600b02016000909190919091506000820151816000015560208201518160010160006101000a81548173ffffffffffffffffffffffffffffffffffffffff021916908373ffffffffffffffffffffffffffffffffffffffff1602179055506040820151816002019080519060200190611ad89291906121f8565b506060820151816003019080519060200190611af59291906121f8565b506080820151816004019080519060200190611b129291906121f8565b5060a0820151816005015560c0820151816006015560e082015181600701556101008201518160080155610120820151816009015561014082015181600a0160006101000a81548160ff02191690836004811115611b7357611b7261328b565b5b021790555050506001600a6000600254815260200190815260200160002060006101000a81548160ff021916908315150217905550600860003373ffffffffffffffffffffffffffffffffffffffff1673ffffffffffffffffffffffffffffffffffffffff1681526020019081526020016000208190806001815401808255809150506001900390600052602060002090600b02016000909190919091506000820151816000015560208201518160010160006101000a81548173ffffffffffffffffffffffffffffffffffffffff021916908373ffffffffffffffffffffffffffffffffffffffff1602179055506040820151816002019080519060200190611c7e9291906121f8565b506060820151816003019080519060200190611c9b9291906121f8565b506080820151816004019080519060200190611cb89291906121f8565b5060a0820151816005015560c0820151816006015560e082015181600701556101008201518160080155610120820151816009015561014082015181600a0160006101000a81548160ff02191690836004811115611d1957611d1861328b565b5b02179055505050600160046000016000828254611d369190612fbd565b925050819055503373ffffffffffffffffffffffffffffffffffffffff167faee8e5d3bbb2f71a951b5632cee20f7ac487b9f8ab4f66a236f7694b13af7c6a60026000815480929190611d88906131e4565b9190505542604051611d9b929190612e0e565b60405180910390a2600191505095945050505050565b60005b6009600083815260200190815260200160002080549050811015611f4a576000600960008481526020019081526020016000208281548110611df957611df86132e9565b5b906000526020600020906004020160000160009054906101000a900473ffffffffffffffffffffffffffffffffffffffff1690506000600960008581526020019081526020016000208381548110611e5457611e536132e9565b5b90600052602060002090600402016001015490506001600960008681526020019081526020016000208481548110611e8f57611e8e6132e9565b5b906000526020600020906004020160030160006101000a81548160ff02191690831515021790555042600960008681526020019081526020016000208481548110611edd57611edc6132e9565b5b906000526020600020906004020160020181905550611efc82826120fb565b600160046001016000828254611f12919061309e565b925050819055508060046002016000828254611f2e919061309e565b9250508190555050508080611f42906131e4565b915050611db4565b5050565b600060078281548110611f6457611f636132e9565b5b90600052602060002090600b02016006015490506000606460015483611f8a9190613044565b611f949190613013565b9050600460078481548110611fac57611fab6132e9565b5b90600052602060002090600b0201600a0160006101000a81548160ff02191690836004811115611fdf57611fde61328b565b5b021790555061203e60078481548110611ffb57611ffa6132e9565b5b90600052602060002090600b020160010160009054906101000a900473ffffffffffffffffffffffffffffffffffffffff168284612039919061309e565b6120fb565b61206860008054906101000a900473ffffffffffffffffffffffffffffffffffffffff16826120fb565b6007838154811061207c5761207b6132e9565b5b90600052602060002090600b0201600601546003600082825461209f919061309e565b925050819055503373ffffffffffffffffffffffffffffffffffffffff167faee8e5d3bbb2f71a951b5632cee20f7ac487b9f8ab4f66a236f7694b13af7c6a84426040516120ee929190612dd2565b60405180910390a2505050565b60008273ffffffffffffffffffffffffffffffffffffffff168260405161212190612b2e565b60006040518083038185875af1925050503d806000811461215e576040519150601f19603f3d011682016040523d82523d6000602084013e612163565b606091505b505090508061217157600080fd5b505050565b60405180610160016040528060008152602001600073ffffffffffffffffffffffffffffffffffffffff1681526020016060815260200160608152602001606081526020016000815260200160008152602001600081526020016000815260200160008152602001600060048111156121f2576121f161328b565b5b81525090565b82805461220490613181565b90600052602060002090601f016020900481019282612226576000855561226d565b82601f1061223f57805160ff191683800117855561226d565b8280016001018555821561226d579182015b8281111561226c578251825591602001919060010190612251565b5b50905061227a919061227e565b5090565b5b8082111561229757600081600090555060010161227f565b5090565b60006122ae6122a984612ee2565b612ebd565b9050828152602081018484840111156122ca576122c961334c565b5b6122d584828561313f565b509392505050565b600082601f8301126122f2576122f1613347565b5b813561230284826020860161229b565b91505092915050565b60008135905061231a81613743565b92915050565b600080600080600060a0868803121561233c5761233b613356565b5b600086013567ffffffffffffffff81111561235a57612359613351565b5b612366888289016122dd565b955050602086013567ffffffffffffffff81111561238757612386613351565b5b612393888289016122dd565b945050604086013567ffffffffffffffff8111156123b4576123b3613351565b5b6123c0888289016122dd565b93505060606123d18882890161230b565b92505060806123e28882890161230b565b9150509295509295909350565b60006020828403121561240557612404613356565b5b60006124138482850161230b565b91505092915050565b600080600080600060a0868803121561243857612437613356565b5b60006124468882890161230b565b955050602086013567ffffffffffffffff81111561246757612466613351565b5b612473888289016122dd565b945050604086013567ffffffffffffffff81111561249457612493613351565b5b6124a0888289016122dd565b935050606086013567ffffffffffffffff8111156124c1576124c0613351565b5b6124cd888289016122dd565b92505060806124de8882890161230b565b9150509295509295909350565b60006124f783836128c1565b905092915050565b600061250b8383612abb565b60808301905092915050565b612520816130d2565b82525050565b61252f816130d2565b82525050565b600061254082612f33565b61254a8185612f6e565b93508360208202850161255c85612f13565b8060005b85811015612598578484038952815161257985826124eb565b945061258483612f54565b925060208a01995050600181019050612560565b50829750879550505050505092915050565b60006125b582612f3e565b6125bf8185612f7f565b93506125ca83612f23565b8060005b838110156125fb5781516125e288826124ff565b97506125ed83612f61565b9250506001810190506125ce565b5085935050505092915050565b612611816130e4565b82525050565b612620816130e4565b82525050565b61262f8161312d565b82525050565b600061264082612f49565b61264a8185612f9b565b935061265a81856020860161314e565b6126638161335b565b840191505092915050565b600061267b601683612fac565b91506126868261336c565b602082019050919050565b600061269e602c83612fac565b91506126a982613395565b604082019050919050565b60006126c1601b83612fac565b91506126cc826133e4565b602082019050919050565b60006126e4601a83612fac565b91506126ef8261340d565b602082019050919050565b6000612707602683612fac565b915061271282613436565b604082019050919050565b600061272a602583612fac565b915061273582613485565b604082019050919050565b600061274d601283612fac565b9150612758826134d4565b602082019050919050565b6000612770602c83612fac565b915061277b826134fd565b604082019050919050565b6000612793601383612fac565b915061279e8261354c565b602082019050919050565b60006127b6602b83612fac565b91506127c182613575565b604082019050919050565b60006127d9601283612fac565b91506127e4826135c4565b602082019050919050565b60006127fc603c83612fac565b9150612807826135ed565b604082019050919050565b600061281f601083612fac565b915061282a8261363c565b602082019050919050565b6000612842601183612fac565b915061284d82613665565b602082019050919050565b6000612865600083612f90565b91506128708261368e565b600082019050919050565b6000612888602f83612fac565b915061289382613691565b604082019050919050565b60006128ab603483612fac565b91506128b6826136e0565b604082019050919050565b6000610160830160008301516128da6000860182612b10565b5060208301516128ed6020860182612517565b50604083015184820360408601526129058282612635565b9150506060830151848203606086015261291f8282612635565b915050608083015184820360808601526129398282612635565b91505060a083015161294e60a0860182612b10565b5060c083015161296160c0860182612b10565b5060e083015161297460e0860182612b10565b50610100830151612989610100860182612b10565b5061012083015161299e610120860182612b10565b506101408301516129b3610140860182612626565b508091505092915050565b6000610160830160008301516129d76000860182612b10565b5060208301516129ea6020860182612517565b5060408301518482036040860152612a028282612635565b91505060608301518482036060860152612a1c8282612635565b91505060808301518482036080860152612a368282612635565b91505060a0830151612a4b60a0860182612b10565b5060c0830151612a5e60c0860182612b10565b5060e0830151612a7160e0860182612b10565b50610100830151612a86610100860182612b10565b50610120830151612a9b610120860182612b10565b50610140830151612ab0610140860182612626565b508091505092915050565b608082016000820151612ad16000850182612517565b506020820151612ae46020850182612b10565b506040820151612af76040850182612b10565b506060820151612b0a6060850182612608565b50505050565b612b1981613123565b82525050565b612b2881613123565b82525050565b6000612b3982612858565b9150819050919050565b6000602082019050612b586000830184612526565b92915050565b60006020820190508181036000830152612b788184612535565b905092915050565b60006020820190508181036000830152612b9a81846125aa565b905092915050565b6000602082019050612bb76000830184612617565b92915050565b60006020820190508181036000830152612bd68161266e565b9050919050565b60006020820190508181036000830152612bf681612691565b9050919050565b60006020820190508181036000830152612c16816126b4565b9050919050565b60006020820190508181036000830152612c36816126d7565b9050919050565b60006020820190508181036000830152612c56816126fa565b9050919050565b60006020820190508181036000830152612c768161271d565b9050919050565b60006020820190508181036000830152612c9681612763565b9050919050565b60006020820190508181036000830152612cb6816127a9565b9050919050565b60006020820190508181036000830152612cd6816127ef565b9050919050565b60006020820190508181036000830152612cf68161287b565b9050919050565b60006020820190508181036000830152612d168161289e565b9050919050565b60006020820190508181036000830152612d3781846129be565b905092915050565b6000602082019050612d546000830184612b1f565b92915050565b6000606082019050612d6f6000830185612b1f565b8181036020830152612d8081612740565b9050612d8f6040830184612b1f565b9392505050565b6000606082019050612dab6000830185612b1f565b8181036020830152612dbc81612786565b9050612dcb6040830184612b1f565b9392505050565b6000606082019050612de76000830185612b1f565b8181036020830152612df8816127cc565b9050612e076040830184612b1f565b9392505050565b6000606082019050612e236000830185612b1f565b8181036020830152612e3481612812565b9050612e436040830184612b1f565b9392505050565b6000606082019050612e5f6000830185612b1f565b8181036020830152612e7081612835565b9050612e7f6040830184612b1f565b9392505050565b6000606082019050612e9b6000830186612b1f565b612ea86020830185612b1f565b612eb56040830184612b1f565b949350505050565b6000612ec7612ed8565b9050612ed382826131b3565b919050565b6000604051905090565b600067ffffffffffffffff821115612efd57612efc613318565b5b612f068261335b565b9050602081019050919050565b6000819050602082019050919050565b6000819050602082019050919050565b600081519050919050565b600081519050919050565b600081519050919050565b6000602082019050919050565b6000602082019050919050565b600082825260208201905092915050565b600082825260208201905092915050565b600081905092915050565b600082825260208201905092915050565b600082825260208201905092915050565b6000612fc882613123565b9150612fd383613123565b9250827fffffffffffffffffffffffffffffffffffffffffffffffffffffffffffffffff038211156130085761300761322d565b5b828201905092915050565b600061301e82613123565b915061302983613123565b9250826130395761303861325c565b5b828204905092915050565b600061304f82613123565b915061305a83613123565b9250817fffffffffffffffffffffffffffffffffffffffffffffffffffffffffffffffff04831182151516156130935761309261322d565b5b828202905092915050565b60006130a982613123565b91506130b483613123565b9250828210156130c7576130c661322d565b5b828203905092915050565b60006130dd82613103565b9050919050565b60008115159050919050565b60008190506130fe8261372f565b919050565b600073ffffffffffffffffffffffffffffffffffffffff82169050919050565b6000819050919050565b6000613138826130f0565b9050919050565b82818337600083830152505050565b60005b8381101561316c578082015181840152602081019050613151565b8381111561317b576000848401525b50505050565b6000600282049050600182168061319957607f821691505b602082108114156131ad576131ac6132ba565b5b50919050565b6131bc8261335b565b810181811067ffffffffffffffff821117156131db576131da613318565b5b80604052505050565b60006131ef82613123565b91507fffffffffffffffffffffffffffffffffffffffffffffffffffffffffffffffff8214156132225761322161322d565b5b600182019050919050565b7f4e487b7100000000000000000000000000000000000000000000000000000000600052601160045260246000fd5b7f4e487b7100000000000000000000000000000000000000000000000000000000600052601260045260246000fd5b7f4e487b7100000000000000000000000000000000000000000000000000000000600052602160045260246000fd5b7f4e487b7100000000000000000000000000000000000000000000000000000000600052602260045260246000fd5b7f4e487b7100000000000000000000000000000000000000000000000000000000600052603260045260246000fd5b7f4e487b7100000000000000000000000000000000000000000000000000000000600052604160045260246000fd5b600080fd5b600080fd5b600080fd5b600080fd5b6000601f19601f8301169050919050565b7f63616d706169676e206e6f7420434f4e4649524d454400000000000000000000600082015250565b7f54686973206973207370656369666963616c6c7920726573747269637465642060008201527f746f20746865206f776e65720000000000000000000000000000000000000000602082015250565b7f536f727279212c2063616e27742066696e642063616d706169676e0000000000600082015250565b7f536f727279212c20556e617574686f72697a6564204f776e6572000000000000600082015250565b7f4b696e646c7920777269746520746865207469746c65206f662074686520636160008201527f6d706169676e0000000000000000000000000000000000000000000000000000602082015250565b7f536f727279212c2063616d706169676e206973206e6f206c6f6e67657220527560008201527f6e6e696e67000000000000000000000000000000000000000000000000000000602082015250565b7f63616d706169676e20535550504f525445440000000000000000000000000000600082015250565b7f4b696e646c7920777269746520746865206465736372697074696f6e206f662060008201527f7468652063616d706169676e0000000000000000000000000000000000000000602082015250565b7f63616d706169676e205445524d494e4154454400000000000000000000000000600082015250565b7f4b696e646c7920696e636c7564652074686520496d61676555524c206f66207460008201527f68652063616d706169676e000000000000000000000000000000000000000000602082015250565b7f63616d706169676e2057495448445241574e0000000000000000000000000000600082015250565b7f536f727279212c2063616d706169676e206973206e6f7420636c61737369666960008201527f6564206173207265766572736564206f72207465726d696e6174656400000000602082015250565b7f63616d706169676e204352454154454400000000000000000000000000000000600082015250565b7f63616d706169676e205245564549574544000000000000000000000000000000600082015250565b50565b7f4b696e646c792077726974652074686520616d6f756e7420696e20455448206660008201527f6f72207468652063616d706169676e0000000000000000000000000000000000602082015250565b7f536f727279212074686520616d6f756e74206f66206574686572206d7573742060008201527f62652067726561746572207468616e207a65726f000000000000000000000000602082015250565b600581106137405761373f61328b565b5b50565b61374c81613123565b811461375757600080fd5b5056fea2646970667358221220bc51eb24c964315d0e7df9b3eb46a21c78ec78fc1789dc6604f5be7e56403ac164736f6c63430008070033",
  "linkReferences": {},
  "deployedLinkReferences": {}
}